:020000040000fa
:080000001015040000000000cf
:020000040000fa
:102800001015040000000000ce21040000000000ac
:10281000e221040000000000f62104000000000096
:102820000a220400000000001e2204000000000034
:10283000ce21040000000000ce21040000000000b2
:10284000ce21040000000000ce21040000000000a2
:10285000ce21040000000000ce2104000000000092
:10286000ce21040000000000482104000000000008
:10287000ce21040000000000ce2104000000000072
:10288000ce21040000000000ce2104000000000062
:10289000ce21040000000000ce2104000000000052
:1028a000ce21040000000000ce2104000000000042
:1028b000ce21040000000000ce2104000000000032
:1028c000ce21040000000000ce2104000000000022
:1028d000ce21040000000000ce2104000000000012
:1028e000ce21040000000000ce2104000000000002
:1028f000ce21040000000000ce21040000000000f2
:10290000ce21040000000000ce21040000000000e1
:10291000ce21040000000000ce21040000000000d1
:10292000ce21040000000000ce21040000000000c1
:10293000ce21040000000000ce21040000000000b1
:10294000ce21040000000000ce21040000000000a1
:10295000ce21040000000000ce2104000000000091
:10296000ce21040000000000ce2104000000000081
:10297000ce21040000000000ce2104000000000071
:10298000ce21040000000000ce2104000000000061
:10299000ce21040000000000ce2104000000000051
:1029a000ce21040000000000ce2104000000000041
:1029b000ce21040000000000ce2104000000000031
:1029c000ce21040000000000ce2104000000000021
:1029d000ce21040000000000ce2104000000000011
:1029e000ce21040000000000ce2104000000000001
:1029f000ce21040000000000ce21040000000000f1
:102a0000ce21040000000000ce21040000000000e0
:102a1000ce21040000000000ce21040000000000d0
:020000040000fa
:102a2000ef8a20000e7f24000e01880000000000c5
:102a30000c000700e0272200010020001100070021
:102a4000000020000000e000020032000000020050
:102a50000000000018200200000000000040da0022
:102a60000000fe004440a900000020000000e0003b
:102a70000300320000002000a00188004440a800ac
:102a80000000060091018800800078000000eb0043
:102a900015003700e280400032a0b4009101ba0076
:102aa000e280400032a0b4009102ba00e28040000f
:102ab00032a0b4000002eb00472bde00f507b200a5
:102ac000602ce10004003a000059eb008301e900aa
:102ad000fdff3e00040037006128e10001003200e4
:102ae0000082eb00040007001101ba000200e000c0
:102af000e8ff3a00000006003159ba008301e900fe
:102b00000c0032002159ba008301e90008003200ac
:102b10000400e00003003a00e280400032a0b4006c
:102b2000f5ff370011d9ba008301e900faff3a0036
:102b30008100e800e180400032a0b40000000600ff
:102b4000889fbe008a9fbe00010578000100e0005a
:102b50000400350008003c000000e00020003200c6
:102b60000500370060001000e080180002003b0004
:102b700001f02c001a0037000004be006011b800fc
:102b80006b0920000982cf00020039000882cf00c3
:102b90000441b000694252000e00320008003b00c0
:102ba00082817100610164008904d1000884d3002e
:102bb0008b05e8000442e800f9ff3a000500370001
:102bc0000804440089844c008b05e9000442e900b4
:102bd000fbff3a00e90007000af0a70001f0a0009f
:102be0004f05be004f04be000000060003f0a20027
:102bf000889fbe008a9fbe008c1f780005010700d9
:102c00000c0133006450e1004f0032006420e10009
:102c10005200320003826c0007003b000905d0001f
:102c20000306d000820f54000c065d00020039003c
:102c30000200320089017800030678008582550081
:102c400004003d000003fd008103fd008502ea0051
:102c50008b854200840f720002003b006000100070
:102c6000e08018006011b8000005eb007a28e10050
:102c70000a00390006007800c75ddd00f707b200e2
:102c8000878075002d003700828171000a0178006d
:102c9000610560008180d1000080d3008502e900d9
:102ca000f9ff3b00060440008784480002003b0017
:102cb00060041400e0841c000988a30007003200af
:102cc0008a81710082817100610164008904d100f0
:102cd0000884d3008b05e800170037000978a300ab
:102ce00013003a000b00e000130034008b05e900ec
:102cf0000804440089844c000a4474000978a30045
:102d00000d003a000b00e000070034008b05e900dd
:102d10000804440089844c0001003a000b002000a4
:102d20000978a300f7ff32000001eb000200370032
:102d3000828171000a017800900007000cf0a70062
:102d400001f0a000c40037006420e10002003a0056
:102d5000838f6c00c40033000801be000200be0077
:102d6000bd003700889fbe008a9fbe008c1f780080
:102d7000a8000700af00330003866c006450e10038
:102d8000240032006420e100270032006150e1009d
:102d9000220032006120e100210032008b854200d8
:102da000eb07b1000134b800003ab8000804420053
:102db00089844a00013ab8000030b8008880400099
:102dc00009014a00040033000000400081804800ef
:102dd000020149008b05e900c909dd00830170008b
:102de0000100320013002000c814de004814dd008a
:102df0004709de001200b200c808de000884700037
:102e00005e00070001f0a1000cf0a70001f0a00097
:102e1000910037006120e100930032000801be00fc
:102e20000200be00f7ff37006150e100fcff3a00ee
:102e30008d003700889fbe008a9fbe008c1f7800df
:102e4000740007007b00330003866c006450e100cf
:102e50002e0032006420e100330032006150e100b6
:102e60002f0032006120e1003100320085855500dd
:102e7000eb07b0000900200008042000050037001f
:102e80000804440089844c000a0031000603430012
:102e900087834b000001530081815b00f8ff330002
:102ea0000203be000800a0000804440089844c000e
:102eb000f6ff3900c639dd008301730001003200de
:102ec000130020008904d1000884d3000998a300ce
:102ed000050032000800a7000300a0008904d1000b
:102ee0000884d3008b05e8008904d1000884d3004e
:102ef0000001eb000281d2002000070001f0a100d8
:102f00000cf0a70001f0a000530037006420e1009e
:102f1000550032000801be000200be00f7ff370076
:102f20006120e100500032006000b800f3ff37007c
:102f30000000200001f82700f0ff37006022b800f1
:102f4000060220000000d0008180d2000482d2005e
:102f50008582d2000000a0000202520083825a0043
:102f6000030031000202420083824a000000a100f7
:102f70000603e900f3ff3a0000000600810020008c
:102f8000618055000b003d000b00200061fe2f000a
:102f90000100e1001d0034008281710061016400c4
:102fa0008904d1000884d3000000e800faff3a0049
:102fb00071002000610064000300700002006000e6
:102fc0000900320061044400e0844c000988a50037
:102fd000050032008b05e8006808e10002003a00b5
:102fe0008904d1000884d300f20f20000258e100c8
:102ff00005003d00c75ddd00f907b200898075005e
:1030000008007800000006000bf827008b0078000d
:10301000000005000004be00160007000003be000b
:103020000405be000200be0012000700844f7500b8
:10303000000006000200be006450e10005003600fa
:103040006420e100020036000968a30001003a0094
:103050000800be000160a0004f0678004f05be00ca
:103060004f04be0000000600f0ff2f00f1ff270014
:10307000f9ff3700c70ade00f107b200f50fb20012
:1030800008003200e1cf4200020032000170a000cf
:1030900024000500810f70000100320004080500c3
:1030a00044000500810f700002003a001400050082
:1030b0008502e9000000400081c04800fcff3b00a1
:0830c0000170a00024000500ce
:020000040000fa
:020000040002f8
:04aff400ff7f0000db
:020000040000fa
:020000040002f8
:04aff8001d13000025
:020000040000fa
:020000040002f8
:04affc00ec3f000026
:020000040000fa
:10000800ce210000e2210000f62100000a220000b3
:100018001e220000ce210000ce210000ce210000cb
:10002800ce210000ce210000ce210000ce2100000c
:10003800ce210000ce210000ce210000ce210000fc
:1000480048210000ce210000ce210000ce21000072
:10005800ce210000ce210000ce210000ce210000dc
:10006800ce210000ce210000ce210000ce210000cc
:10007800ce210000ce210000ce210000ce210000bc
:10008800ce210000ce210000ce210000ce210000ac
:10009800ce210000ce210000ce210000ce2100009c
:1000a800ce210000ce210000ce210000ce2100008c
:1000b800ce210000ce210000ce210000ce2100007c
:1000c800ce210000ce210000ce210000ce2100006c
:1000d800ce210000ce210000ce210000ce2100005c
:1000e800ce210000ce210000ce210000ce2100004c
:1000f800ce210000ce210000ce210000ce2100003c
:10010800ce210000ce210000ce210000ce2100002b
:10011800ce210000ce210000ce210000ce2100001b
:10012800ce210000ce210000ce210000ce2100000b
:10013800ce210000ce210000ce210000ce210000fb
:10014800ce210000ce210000ce210000ce210000eb
:10015800ce210000ce210000ce210000ce210000db
:10016800ce210000ce210000ce210000ce210000cb
:10017800ce210000ce210000ce210000ce210000bb
:10018800ce210000ce210000ce210000ce210000ab
:10019800ce210000ce210000ce210000ce2100009b
:1001a800ce210000ce210000ce210000ce2100008b
:1001b800ce210000ce210000ce210000ce2100007b
:1001c800ce210000ce210000ce210000ce2100006b
:1001d800ce210000ce210000ce210000ce2100005b
:1001e800ce210000ce210000ce210000ce2100004b
:0801f800ce210000ce21000021
:020000040000fa
:10020800ce210000e2210000f62100000a220000b1
:100218001e220000ce210000ce210000ce210000c9
:10022800ce210000ce210000ce210000ce2100000a
:10023800ce210000ce210000ce210000ce210000fa
:1002480048210000ce210000ce210000ce21000070
:10025800ce210000ce210000ce210000ce210000da
:10026800ce210000ce210000ce210000ce210000ca
:10027800ce210000ce210000ce210000ce210000ba
:10028800ce210000ce210000ce210000ce210000aa
:10029800ce210000ce210000ce210000ce2100009a
:1002a800ce210000ce210000ce210000ce2100008a
:1002b800ce210000ce210000ce210000ce2100007a
:1002c800ce210000ce210000ce210000ce2100006a
:1002d800ce210000ce210000ce210000ce2100005a
:1002e800ce210000ce210000ce210000ce2100004a
:1002f800ce210000ce210000ce210000ce2100003a
:10030800ce210000ce210000ce210000ce21000029
:10031800ce210000ce210000ce210000ce21000019
:10032800ce210000ce210000ce210000ce21000009
:10033800ce210000ce210000ce210000ce210000f9
:10034800ce210000ce210000ce210000ce210000e9
:10035800ce210000ce210000ce210000ce210000d9
:10036800ce210000ce210000ce210000ce210000c9
:10037800ce210000ce210000ce210000ce210000b9
:10038800ce210000ce210000ce210000ce210000a9
:10039800ce210000ce210000ce210000ce21000099
:1003a800ce210000ce210000ce210000ce21000089
:1003b800ce210000ce210000ce210000ce21000079
:1003c800ce210000ce210000ce210000ce21000069
:1003d800ce210000ce210000ce210000ce21000059
:1003e800ce210000ce210000ce210000ce21000049
:0803f800ce210000ce2100001f
:020000040000fa
:1030c8000200fa000000eb00000f78008042800048
:1030d800000f78001e0078000080fa00000006004b
:1030e8000600fa000000eb00100798007a040700b9
:1030f800000f78000e003700000000004106200095
:103108001e0078007a0407000000e0000800320082
:1031180010000700100798001e0090000000e00053
:103128000300320040012000200798000600370005
:10313800dac2bf00684060000004e000eeff3a0019
:103148000000eb00200798002e0090000080fa0095
:10315800000006001800fa000000eb006007980065
:103168000040eb00604f98000000eb00500798000b
:103178000000eb00400798006e009000100f9800c8
:103188009e089000eb8f50009d0032001e099000b1
:10319800eb0f510004003e009e099000ea8f510099
:1031a8002e003200060037001e0a9000ec0f520075
:1031b800990032009e0a9000ed8f52009c00320068
:1031c8005e0090000000e800500798005e00900044
:1031d800ea0f500002003600400120006007980006
:1031e8000000eb00400798000f00370040c2bf0006
:1031f800624060000004e000fcff3a00f00f20008d
:103208004012880040c2bf00614060000004e00036
:10321800fcff320040128000604f98004e00900082
:103228000000e800400798004e009000e40f5000ae
:10323800eeff36000100370000000000dac2bf00d0
:10324800684060000004e000fbff3a002003200013
:1032580095040700a000200060079800e0c0b300b4
:10326800e9000700200798002e009000ea0f5000a0
:10327800030032000000eb00600798007b00370075
:10328800f0c0b300e000070020079800ae009000ef
:1032980000712000808f5000030032000000eb0016
:1032a800600798007100370020c1b300d6000700fe
:1032b800604798006e4090000004e0000300320070
:1032c8000000eb00600798006800370030c1b300c9
:1032d800cd000700008fbe0000002000010820007c
:1032e800be0f1000ae8f1800030032000000eb0084
:1032f800600798005d00370040c1b300c2000700b6
:10330800008fbe00f00f2000010f20009e01780002
:103318001e0290000001780001007800028161001f
:10332800000062006102b800240f9800350f980071
:103338002e089000be089000c000dd0000002000ac
:10334800200f9800310f98002e089000be089000ba
:103358006112b800240f9800350f98002e099000cc
:10336800be099000020070008380700002002000f7
:1033780003052000820f5000838f5800030032009d
:103388000000eb006007980038003700220020009a
:1033980003002000e0c0b30039010700e0c0b3001b
:1033a80099000700200798002e009000e20f5000b7
:1033b800030032000000eb00600798002b00370084
:1033c8001203210003002000f0c0b3002c01070005
:1033d800f0c0b3008c00070020079800ae009000f2
:1033e80010032100808f5000030032000000eb0022
:1033f800600798001d003700b000200060079800a3
:103408005200280003002000e0c0b3001c010700a0
:10341800c00020006007980052002a000300200026
:10342800e0c0b30016010700d00020006007980034
:103438002200200003002000e0c0b30010010700b4
:10344800e0c0b30070000700200798002e0090002d
:10345800e20f5000030032000000eb006007980004
:1034680002003700e0002000600798006e0090001e
:10347800ee0f5000030032006e009000f40f500071
:103488003dff3a006e009000ee0f500003003a0036
:103498008001eb00030f9800020037004401200070
:1034a800040f98000e0890000080fa000000060043
:1034b8001a00fa00881f78000000eb00100f98002f
:1034c8006000b80040079800510798006000b800f5
:1034d8002007980031079800e0c0b3004a000700b1
:1034e800000f98000e089000e20f50001100320003
:1034f80018ff0700100f98001e0890000000e00059
:103508000300320040012000400f98003a003700c5
:10351800e0c0b3003c000700000f98000e089000c0
:10352800e20f50000300320041012000410f9800d3
:103538003100370000c1b30033000700600798006e
:10354800710798006e009000fe00900040079800f8
:1035580051079800020120004e009000de00900004
:103568007d01070020079800310798002e00900081
:10357800be0090004809dd004800de000000710030
:10358800c808de0020079800310798002e00900038
:1035980080428800884280006140b90066fd0700cb
:1035a800200f9800310f98000800e00007003d0048
:1035b80002002000037824002e089000be08900026
:1035c80089fd0700200f9800310f9800e27a240047
:1035d800130024002e089000be089000dffd0700ad
:1035e80002f02f00f377240010fe0700008fbe00c2
:1035f8000000eb00400f98004e0890004f04780040
:103608000080fa00000006001000fa00404f980001
:103618000040eb00204f980000c4b300104f980002
:1036280010c0b300004f98006000b8002007980051
:10363800310798006000b800008fbe004e48900027
:103648000080fb00700798007e009000f10f50008a
:10365800290032007e019000f10f51000a003c0061
:10366800fe019000ef8f5100170032007e0090009d
:10367800ef0f50001a003c007e019000ee0f510041
:103688000b00320035003700fe019000f38f510027
:10369800230032007e009000f30f50001b0035001d
:1036a8007e019000f40f5100240032002b003700f7
:1036b8001e4890000034a000104f980020c0b300ae
:1036c800004f9800250037001e4890000044a000d5
:1036d800104f980020c0b300004f98001f0037001b
:1036e8001e4890008041b300104f980030c0b300ce
:1036f800004f9800190037001e48900001c2b3001f
:1037080001407000104f9800140037001e489000c8
:1037180081c2b30001407000104f98000f003700bd
:103728009e48900000c3b30000c07000104f98007e
:1037380030c0b300004f9800080037009e48900042
:1037480080c3b30000c07000104f980030c0b300b1
:10375800004f98000100370000000000dac2bf00e7
:10376800684060000004e000fbff3a0040c2bf0070
:10377800624060000004e000fcff3a001e48900030
:103788000080fb004012880040c2bf00614060001a
:103798000004e000fcff320040128000204f980037
:1037a8002f0037000000eb004012880040c2bf0025
:1037b800614060000004e000fcff32000e48900009
:1037c8000040e900004f98004012800001002000ee
:1037d800008fbe000e489000e24f50000a003a00e9
:1037e8001e00be00c001dd00020020002e00900077
:1037f800be009000020070008380700020079800cf
:1038080031079800160037000e489000e14f50002d
:103818000c003a001e00be004809dd00c801de00a9
:10382800830171004801dd002e009000be00900069
:10383800020070008380700020079800310798000c
:10384800070037002e009000be0090003e01700077
:10385800ae8170000200be00200798003107980072
:103868000e4890000004e000ceff3a00000000007f
:103878002e009000be0090000080fa0000000600b4
:103888001400fa0040479800320798004307980050
:103898000040eb00204798000040eb0010479800dc
:1038a80010c0b300004f78004e4090000080fb002d
:1038b800500798005e009000f10f50002900320078
:1038c800de009000f18f50000a003c005e0190007d
:1038d800ef0f510017003200de019000ef8f51000a
:1038e8001a003c005e029000ee0f52000b003200fe
:1038f80033003700de029000f38f520023003200bd
:103908005e009000f30f50001b003500de009000b1
:10391800f48f500024003200290037001e40900028
:103928000034a0001047980020c0b300004f780072
:10393800230037001e4090000044a0001047980064
:1039480020c0b300004f78001d0037001e409000d3
:103958008041b3001047980030c0b300004f780092
:10396800170037001e40900001c2b30001407000ec
:1039780010479800120037001e40900081c2b30023
:1039880001407000104798000d0037009e409000dd
:1039980000c3b30000c070001047980030c0b300e7
:1039a800004f7800060037009e40900080c3b300a7
:1039b80000c070001047980030c0b300004f780076
:1039c80040c2bf00624060000004e000fcff3a0013
:1039d8001e4090000080fb004012880040c2bf00db
:1039e800614060000004e000fcff320040128000eb
:1039f80020479800540037001e4fe90022c0b3004a
:103a08009e4f110021003a003e009000ce00900029
:103a180002002000f30f20000002780081027800e5
:103a280002007800830078000001620001806200d3
:103a38006102b80064079800750798006e0090004e
:103a4800fe009000c000dd00000020006007980024
:103a5800710798006e009000fe0090006112b80097
:103a680064079800750798006e019000fe019000a9
:103a780002007000838070004008de000100200012
:103a88000080fb00401288002900370013c0b300f3
:103a98009ecf110023003a003e009000ce00900017
:103aa80002f02f0003002000000278008102780055
:103ab8000200780083007800000162000180620043
:103ac8006102b800040f9800150f98000e089000c6
:103ad8009e089000c000dd0000002000000f980044
:103ae800110f98000e0890009e0890006112b8000f
:103af800040f9800150f98000e0990009e09900079
:103b08000200700083807000c809dd004800de00f4
:103b180000807100c808de000080fb0040128800a9
:103b2800030037003e0090000080fb004012880030
:103b380040c2bf00614060000004e000fcff3200aa
:103b480040128000204798001e04e000aaff3a00b7
:103b58000080fa00000006000c00fa003007980008
:103b680041079800520798005e00900020079800cf
:103b78003e019000ce019000028fbe002e00900002
:103b88000000e00002003a00100020002007980022
:103b98002e009000f00f50000200360000012000b7
:103ba80020079800a14280002e009000810f50004d
:103bb800040032000000eb00b0428800ae01900023
:103bc800a3428800b04280000000e00024003a00d0
:103bd8000000eb00c04288000a003700c0428000a5
:103be800c200dd00a0852000008040003e0190005a
:103bf800ce0190000288be00c04280000000e800ac
:103c0800c0428800c14280002e009000808f500082
:103c1800f2ff39002e0090006103b800860078009a
:103c28003e009000000ab8004e00900000b0b900b5
:103c380005017800000141003e0090000780b900ae
:103c48000001410082027800d4448800e5448800dd
:103c58000000eb00c042880010002000b04288003d
:103c6800d2448000e34480003e009000ce009000e3
:103c78000201400083814800c0428000c200dd008c
:103c8800a0852000008040001000be000000510008
:103c980081805900d0448800e1448800c0428000f7
:103ca800c200dd00a0852000008040003e01900099
:103cb800ce0190000288be00c04280000000e800eb
:103cc800c0428800d4448000e54480002e00900063
:103cd8006101b8000400be0096fc0700008fbe001a
:103ce8002e0090008000e900c0428000808f5000c4
:103cf800020031000000eb00c04288001e00be0038
:103d08000080fa00000006000000fa000600070024
:103d180016000700b70007005f00070074000700df
:103d28000080fa00000006000000fa0042e7a80040
:103d3800517420009140780080cfb30000c060002b
:103d480045e7b70044c7bf00f043b20044e7b700f7
:103d5800817420009140780000ccb30000c060005e
:103d680048e7b7000080fa00000006000000fa00eb
:103d78000000eb00201688000000eb0060168800a9
:103d88000000eb00a01688000000eb00e016880099
:103d98000000eb00201788000000eb006017880087
:103da8000000eb00a01788000000eb003016880028
:103db80000602000f01688000000eb003017880033
:103dc800f0ff230000168800000c20004016880031
:103dd8000000eb008016880080002000c0168800d4
:103de8000000eb00001788000000eb004017880077
:103df8000000eb00801788000080eb006019880045
:103e0800113a8000f00b200000816000610420005e
:103e180070052000237420008149780080497800cb
:103e280082497800816a20009140780000ccb30074
:103e380000c060006041b300a8e6b700816d2000b3
:103e48009140780000ccb30000c060000034a000ae
:103e5800d8e6b700716d20009140780000ccb3001f
:103e680000c060007040b300d7e6b700113a800088
:103e7800000420000081700061042000700520000b
:103e880023742000814978008049780082497800ad
:103e98000080fa00000006000000fa004382a90032
:103ea8004362a9004342a9004322a9004302a90092
:103eb80042e2a90042c2a80042a2a80042c2bf0032
:103ec800c041b30042e2b7002124200091407800ad
:103ed800c0cfb30000c0600042e2b70045e2a900cd
:103ee80040c2a90041e2a8000080fa0000000600d4
:103ef8000200fa0017e2a900c5c2a900c5e2a9009c
:103f08000000eb00000f7800c5c2a900c5e2a900b7
:103f1800a000200064010700c5c2a900c5e2a800ee
:103f28002000200060010700c5c2a8001000200082
:103f38005d010700c5e2a900100020005a01070032
:103f4800c5c2a9001000200057010700c5e2a8005b
:103f580010002000540107000000eb00000f78005b
:103f680007003700c5c2a800200020004e01070046
:103f7800c5c2a900200020004b0107001e0fe80061
:103f8800800020009e0f1000f6ff3600c5c2a80072
:103f98001000200044010700c5e2a900100020001d
:103fa80041010700c5c2a900100020003e0107001a
:103fb800c5c2a800100020003b010700c5e2a80008
:103fc8001000200038010700c5c2a9001000200019
:103fd8003501070050022000a010880017e2a80051
:103fe80017a2a9001762a9001722a9000080fa00e9
:103ff800000006000000fa000000eb00000988003d
:104008000000eb00c00888000112200091407800f1
:1040180000c3b30000c0700020e1b70021e1a80090
:104028000080fa00000006000000fa0018000700ef
:1040380040458800560007000000eb00f044880067
:1040480059000700feff37000200fa0040458000d3
:10405800000f78000000eb00404588001e00780043
:104068000080fa00000006000200fa0050458000b7
:10407800000f78001e0078000080fa00000006009b
:104088000000fa00f04480000080fa0000000600fa
:104098000400fa000000eb00100798000000eb0095
:1040a800000f7800003a8000000f78001e007800aa
:1040b8004900de00610060000004e00003003200f7
:1040c80060002000100798002c0037009e00780040
:1040d800638060000000e000030032000000eb0095
:1040e80010079800250037001e0078004600de0003
:1040f800610060000004e0000300320010002000ae
:10410800100798001d0037001e0078000000d1003d
:10411800610060000004e00003003200200020007d
:1041280010079800150037001e0078004400de00d4
:10413800610060000004e00003003200300020004d
:10414800100798000d0037001e0078000000e000fe
:1041580003003d00400020001007980007003700ca
:104168001e0078004e00de00610060000004e000e0
:104178000200320050002000100798000000eb00f9
:10418800003a88001e0090000080fa000000060037
:104198000000fa00dcfe0700eefb0700504588002f
:1041a8000080fa00000006000000fa000060fe002f
:1041b800c00880000045880021458000703e20002e
:1041c800808f5000030036000145800010458000b4
:1041d80015000700c2fb070050458800c008800092
:1041e80010458800b2fc0700504588003045800023
:1041f800ff0f500003003e00304580000000e8003b
:104208003045880021458000703e2000808f500096
:1042180003003e00204580000000e800204588009b
:104228000080fa00000006000600fa001007980057
:10423800210798000000eb00000f7800ae00900006
:104248001e009000808f500004003600ae009000e1
:104258001e009000008f5000040037002e009000d0
:104268009e00900001005000000fe900f04480001b
:104278009e0f1000020036001e007800f0448800ef
:104288000080fa0000000600801f78000000fa0095
:104298000000eb00500888000000eb009008880040
:1042a80060458000e10f4000040032006045800056
:1042b8000000e80060458800020037000000eb00bd
:1042c800604588008500a90013e1a8000080fa0075
:1042d8004f007800004006000200fa0060458000a8
:1042e800000f78001e0078000080fa000000060029
:1042f8000c00fa00300798004107980060458000dc
:10430800200798003e0090006101b8004e00900020
:1043180001002000001f4100019749002e00900075
:1043280001002000be0f5000ae8f58000300360079
:10433800100020005007980013003700be009000be
:104348002e009000808f50000d003600ae009000c7
:104358003e009000008050008000e9004e00900070
:10436800808f50000300360010002000500798008e
:10437800050037000000eb005007980002003700e6
:104388000000eb00500798005e0090000080fa00e3
:10439800000006003400f800881f7800080020009c
:1043a800a80188004f0478000000fa00000000000f
:1043b8000000000000000000fcff37003400f80097
:1043c800881f780008002000a80188004f047800a2
:1043d8000000fa00000000000000000000000000db
:1043e800fcff37003400f800881f78000800200020
:1043f800a80188004f0478000000fa0000000000bf
:104408000000000000000000fcff37003400f80046
:10441800881f780008002000a80188004f04780051
:104428000000fa000000000000000000000000008a
:10443800fcff37003400f800881f780008002000cf
:10444800a80188004f0478000000fa00000000006e
:104458000000000000000000fcff37000400fa0024
:10446800100798001e009000000f78000000280038
:1044780020088800060037000000eb0000088800cc
:1044880001088000f0e72300808f5000fcff360011
:104498001e0fe9000080eb009e0f1000f6ff3a00a7
:1044a8000080fa00000006000400fa0010079800d7
:1044b8001e009000000f78000000280020088800e7
:1044c800060037000000eb000008880001088000a3
:1044d800f0092000808f5000fcff36001e0fe90015
:1044e8000080eb009e0f1000f6ff3a000080fa00f3
:0444f80000000600ba
:020000040000fa
:1044fc00a8080000040000000200000000000000fa
:10450c00000000009e0800000a00000000000000ef
:10451c00ac08000002000000000000005008000081
:0c452c004e000000000000000000000035
:00000001FF
